{
  "_format": "hh-sol-artifact-1",
  "contractName": "Faucet",
  "sourceName": "contracts/Faucet.sol",
  "abi": [
    {
      "inputs": [],
      "stateMutability": "payable",
      "type": "constructor"
    },
    {
      "anonymous": false,
      "inputs": [],
      "name": "FallbackCalled",
      "type": "event"
    },
    {
      "inputs": [],
      "name": "owner",
      "outputs": [
        {
          "internalType": "address payable",
          "name": "",
          "type": "address"
        }
      ],
      "stateMutability": "view",
      "type": "function"
    },
    {
      "inputs": [
        {
          "internalType": "uint256",
          "name": "_amount",
          "type": "uint256"
        }
      ],
      "name": "withdraw",
      "outputs": [],
      "stateMutability": "payable",
      "type": "function"
    },
    {
      "inputs": [],
      "name": "withdrawAll",
      "outputs": [],
      "stateMutability": "nonpayable",
      "type": "function"
    }
  ],
  "bytecode": "0x6080604052336000806101000a81548173ffffffffffffffffffffffffffffffffffffffff021916908373ffffffffffffffffffffffffffffffffffffffff160217905550610425806100536000396000f3fe6080604052600436106100345760003560e01c80632e1a7d4d14610039578063853828b6146100555780638da5cb5b1461006c575b600080fd5b610053600480360381019061004e91906102a3565b610097565b005b34801561006157600080fd5b5061006a61015c565b005b34801561007857600080fd5b50610081610244565b60405161008e9190610311565b60405180910390f35b670de0b6b3a76400008111156100ac57600080fd5b60003373ffffffffffffffffffffffffffffffffffffffff16826040516100d29061035d565b60006040518083038185875af1925050503d806000811461010f576040519150601f19603f3d011682016040523d82523d6000602084013e610114565b606091505b5050905080610158576040517f08c379a000000000000000000000000000000000000000000000000000000000815260040161014f906103cf565b60405180910390fd5b5050565b60008054906101000a900473ffffffffffffffffffffffffffffffffffffffff1673ffffffffffffffffffffffffffffffffffffffff163373ffffffffffffffffffffffffffffffffffffffff16146101b457600080fd5b60008060009054906101000a900473ffffffffffffffffffffffffffffffffffffffff1673ffffffffffffffffffffffffffffffffffffffff16476040516101fb9061035d565b60006040518083038185875af1925050503d8060008114610238576040519150601f19603f3d011682016040523d82523d6000602084013e61023d565b606091505b5050905050565b60008054906101000a900473ffffffffffffffffffffffffffffffffffffffff1681565b600080fd5b6000819050919050565b6102808161026d565b811461028b57600080fd5b50565b60008135905061029d81610277565b92915050565b6000602082840312156102b9576102b8610268565b5b60006102c78482850161028e565b91505092915050565b600073ffffffffffffffffffffffffffffffffffffffff82169050919050565b60006102fb826102d0565b9050919050565b61030b816102f0565b82525050565b60006020820190506103266000830184610302565b92915050565b600081905092915050565b50565b600061034760008361032c565b915061035282610337565b600082019050919050565b60006103688261033a565b9150819050919050565b600082825260208201905092915050565b7f4661696c656420746f2073656e64204574686572000000000000000000000000600082015250565b60006103b9601483610372565b91506103c482610383565b602082019050919050565b600060208201905081810360008301526103e8816103ac565b905091905056fea26469706673582212200bd15b3f5f58997c9cafc8cd288ac37a74c452e38c404273d254499e5d1a5cbe64736f6c63430008180033",
  "linkReferences": {},
  "deployedLinkReferences": {}
}